:060000000A128A11FC2F18
:100008001930831603139900243098009030831216
:100018000313980083160313071387170800831226
:100028000313A801A90177087804031D1C281D28BB
:10003800552879088400303083138000790A8400B9
:1000480080019328831203132808203E84000A3075
:10005800F0000030F1007808F3007708F2000A1287
:100068008A15BF240A128A117008303E8313800053
:10007800013083120313A8070318A90A0030A9073F
:100088000A30F0000030F1007808F3007708F20039
:100098000A128A15F7240A128A117108F8007008E2
:1000A800F70077087804031D5A285B28262883124E
:1000B8000313A601A7017C282030FA00831203133A
:1000C8002608FA0228087A07FB007B08FF3E84000E
:1000D80083130008FF0026087907FC007C088400C9
:1000E8007F0880000130A6070318A70A0030A70779
:1000F8002708803AFA002908803A7A02031D8628E0
:1001080028082602031C89288A28602883120313DA
:1001180028087907FA007A08840083138001080008
:10012800831203135108DB008030DB055108D2002D
:100138005207E200D01FA128A228A328621462084F
:100148000319A728A828B828620A031DAC28AD28D7
:10015800B5280030D1000030D0000030CF0000308A
:10016800CE00D017D101C0280030D1000030D00017
:100178000030CF000030CE004D088039DB064D0836
:10018800D2005207E300CC1FCA28CB28CC2863141E
:1001980063080319D028D128E128630A031DD5284C
:1001A800D628DE280030CD000030CC000030CB004F
:1001B8000030CA00CC17CD01E9280030CD0000304E
:1001C800CC000030CB000030CA004D084C044B0472
:1001D8004A04031DF028F12808290030D100003016
:1001E800D0000030CF000030CE008030D0047F3007
:1001F800D1045B08D1045108CD005008CC004F0849
:10020800CB004E08CA005D2A6208031D0C290D297F
:1002180016290030CD000030CC000030CB00003073
:10022800CA005D2A6208D200D3015308D5006308CA
:100238005202D400031CD50354087F3EDC00550845
:100248000318013E003EDD005108DA005008D900CD
:100258004F08D8004E08D7000030D1000030D00039
:100268000030CF000030CE000030E1000030E00068
:100278000030DF000030DE00E3018A29630803193B
:100288004629472967290130D2000310D70DD80D18
:10029800D90DDA0DD20B49290130D2000310CE0D49
:1002A800CF0DD00DD10DD20B5229E11F5C295D294C
:1002B8005E294E140130D2000310DE0DDF0DE00D73
:1002C800E10DD20B60294D085A02031D75294C080F
:1002D8005902031D75294B085802031D75294A0840
:1002E8005702031C78297929882961174A08D702F7
:1002F8004B08031C4B0FD8024C08031C4C0FD902A7
:100308004D08031C4D0FDA020130E3071A3063026F
:10031800031C8F29902942295A0859045804570464
:10032800031997299829B7295E14B7290130D200F3
:100338000310CE0DCF0DD00DD10DD20B9C29E11F8E
:10034800A629A729A8294E140130D2000310DE0DD2
:10035800DF0DE00DE10DD20BAA29FF30DC070318F1
:10036800DD0AFF30DD07D01FBA29BB299A29E3012E
:10037800E11FBF29C029DC29FF305E05D200FF300C
:100388005F05D300FF306005D4007F306105D500DC
:1003980055085404530452040319D329D429D729DE
:1003A8000130E300DC294E1CDA29DB29DC29D429B9
:1003B80063080319E029E129122A0130CE07003029
:1003C80003180130CF07003003180130D007003080
:1003D80003180130D107511CF229F329122A4E08BB
:1003E800D2004F08D3005008D4005108D50001307E
:1003F800D600550DD50CD40CD30CD20CD60BFD2938
:100408005508D1005408D0005308CF005208CE0038
:100418000130DC070318DD0A0030DD075D08803A8B
:10042800FF0080307F02031D1B2AFF305C02031C83
:100438001E2A1F2A2D2AFF3083120313DC000030E6
:10044800DD000030D1000030D0000030CF00003097
:10045800CE00831203135D08803AFF0080307F02CC
:10046800031D382A01305C0203183B2A3C2A492A1A
:1004780083120313DC01DD010030D1000030D0000D
:100488000030CF000030CE00DB01831203135C087C
:10049800E200621C502A512A532AD017552A7F306D
:1004A800D0056208D2000310520CD1005B08D104B9
:1004B800FF2808007308F8008030F80573088312D5
:1004C8000313A0002007FA00F21F6B2A6C2A6D2A7A
:1004D8007A147A080319712A722A822A7A0A031D61
:1004E800762A772A7F2A0030F3000030F2000030A5
:1004F800F1000030F000F217F3018A2A0030F3000F
:100508000030F2000030F1000030F0007708F90008
:100518008030F905790878060319932A942A952AD0
:1005280078177708A0002007F900F61F9C2A9D2A53
:100538009E2A791479080319A22AA32AB32A790AC8
:10054800031DA72AA82AB02A0030F7000030F600B9
:100558000030F5000030F400F617F701BB2A003030
:10056800F7000030F6000030F5000030F4007A089B
:1005780079020318C02AC12AE52A781FC42AC52A85
:10058800C72A8030F8067A08FB007908FA007B0849
:10059800F9007008FB007408F0007B08F40071088B
:1005A800FB007508F1007B08F5007208FB0076086F
:1005B800F2007B08F6007308FB007708F3007B085D
:1005C800F700FB017908A000A1012108A3007A081F
:1005D8002002A200031CA3032308803AFF008030F6
:1005E8007F02031DF92A1A302202031CFC2AFD2A65
:1005F800342B7308720471047004031D042B062B3A
:100608000130072B0030FB000030F3000030F2000F
:100618000030F1000030F0007908FA003A2B7B1C1A
:10062800162B172B202B7B0883120313A000031013
:10063800200C0138FB00222B0310FB0C701C252B0F
:10064800262B272BFB17013083120313A000730DF1
:10065800F30CF20CF10CF00CA00B2B2B0130FA0769
:1006680079087A02031C392B3A2B132B781B3D2B64
:100678003E2B892B7A08031D422B432B4C2B003031
:10068800F3000030F2000030F1000030F000B92C27
:100698007408F007750803110318013E0319552B58
:1006A800F107760803110318013E03195C2BF207C2
:1006B800770803110318013E0319632BF307731C12
:1006C800662B672B412C7B1C6A2B6B2B742B7B08AE
:1006D80083120313A0000310200C0138FB00762BB3
:1006E8000310FB0C701C792B7A2B7B2BFB1701302A
:1006F80083120313A000730DF30CF20CF10CF00C31
:10070800A00B7F2B0130FA07412C7308803AFF00B9
:100718007708803A7F02031D9B2B76087202031D1F
:100728009B2B75087102031D9B2B7408700203181C
:100738009E2B9F2BF82BFF3083120313A000FF3052
:10074800A100FF30A200FF30A3007408A4007508C0
:10075800A5007608A6007708A7007008A40271080B
:10076800031C710FB82BB92BA5027208031C720F5A
:10077800BE2BBF2BA6027308031C730FC42BC52BFB
:10078800A7022408A00725080318250FCC2BCD2B7A
:10079800A10726080318260FD22BD32BA207270858
:1007A8000318270AA3072308F3002208F2002108E8
:1007B800F1002008F0008030F8067B03FF3AFB00C8
:1007C8007B08031DE82BE92B062C0130F0070030CD
:1007D80003180130F107003003180130F207003028
:1007E80003180130F307062C7408F0027508031C7F
:1007F800750FF1027608031C760FF2027708031CC6
:10080800770FF3027308720471047004031D0D2C32
:100818000E2C3D2C7B08031D122C132C3D2C003074
:10082800F3000030F2000030F1000030F000B92C85
:10083800013083120313A0000310F00DF10DF20D27
:10084800F30DA00B202CFB1F2A2C2B2C2C2C701406
:100858007B1C2F2C302C342C03147B0DFB00362CE6
:100868000310FB0D7A0803193A2C3B2C3D2C013060
:10087800FA02F21F402C412C1C2CF901FB1F452CBD
:10088800462C542C7B087F3903194B2C4C2C4F2CAD
:100898000130F900542C701C522C532C542C4C2C25
:1008A80079080319582C592C8D2C0130F007003089
:1008B80003180130F107003003180130F207003047
:1008C80003180130F307731C6A2C6B2C8D2C7008ED
:1008D80083120313A0007108A1007208A200730814
:1008E800A3000130A400230DA30CA20CA10CA00CA2
:1008F800A40B772C2308F3002208F2002108F1004A
:100908002008F0007A0A03198A2C8B2C8D2C0130D0
:10091800FA077A0A0319912C922C972C7A08031D4E
:10092800962C972CA52C0030F3000030F2000030F4
:10093800F1000030F0007A08031DA32CA42CA52C8C
:10094800F8017A1CA82CA92CAB2CF217AD2C7F30FF
:10095800F2057A0883120313A0000310200CF30099
:10096800F81FB72CB82CB92CF317080083120313FF
:100978003308BD008030BD053308B8003807C30010
:10098800B21FC72CC82CC92C431443080319CD2CFB
:10099800CE2CDD2C430A031DD22CD32CDB2C0030AB
:1009A800B3000030B2000030B1000030B000B21720
:1009B800E52C0030B3000030B2000030B100003048
:1009C800B00037088039BD063708B8003807C200BC
:1009D800B61FEF2CF02CF12C421442080319F52C09
:1009E800F62C052D420A031DFA2CFB2C032D003092
:1009F800B7000030B6000030B5000030B400B617BC
:100A08000D2D0030B7000030B6000030B5000030C2
:100A1800B40042080319112D122D172D4308031D88
:100A2800162D172D202D0030B3000030B2000030F5
:100A3800B1000030B000FB2F3008F00036080A1271
:100A48008A1598240A128A11710883120313C9009F
:100A58007008C8004808B800B901BA01BB013B08D2
:100A6800C1003A08C0003908BF003808BE0049086C
:100A7800B800B901BA01BB013B08C7003A08C60073
:100A88003908C5003808C4003108F00035080A12D2
:100A98008A1598240A128A11710883120313C9004F
:100AA8007008C8004808B800B901BA01BB01380885
:100AB800BE07390803110318013E0319642DBF0747
:100AC8003A0803110318013E03196B2DC0073B08B0
:100AD80003110318013E0319722DC1074908B80014
:100AE800B901BA01BB013808C40739080311031852
:100AF800013E0319802DC5073A0803110318013E6A
:100B08000319872DC6073B0803110318013E031973
:100B18008E2DC7073208F00034080A128A15982467
:100B28000A128A11710883120313C9007008C800D9
:100B38004808B800B901BA01BB013808BE0739082E
:100B480003110318013E0319AA2DBF073A08031120
:100B58000318013E0319B12DC0073B080311031800
:100B6800013E0319B82DC1074908B800B901BA01F7
:100B7800BB013808C407390803110318013E0319DB
:100B8800C62DC5073A0803110318013E0319CD2DD8
:100B9800C6073B0803110318013E0319D42DC707E4
:100BA8000830B8000310BE0DBF0DC00DC10DB80B45
:100BB800D62D3108F00034080A128A1598240A1232
:100BC8008A11710883120313C9007008C800480805
:100BD800B8004908B900BA01BB013808BE0739088E
:100BE80003110318013E0319FA2DBF073A08031130
:100BF8000318013E0319012EC0073B08031103180F
:100C0800013E0319082EC1073008F00035080A1202
:100C18008A1598240A128A11710883120313C900CD
:100C28007008C8004808B8004908B900BA01BB01F3
:100C38003808BE07390803110318013E0319252E89
:100C4800BF073A0803110318013E03192C2EC007E9
:100C58003B0803110318013E0319332EC10708305E
:100C6800B8000310BE0DBF0DC00DC10DB80B352E59
:100C78003008F00034080A128A1598240A128A11DA
:100C8800710883120313C9007008C8004808B80027
:100C98004908B900BA01BB013808BE073908031171
:100CA8000318013E0319592EBF073A080311031808
:100CB800013E0319602EC0073B0803110318013ECB
:100CC8000319672EC1073108F00036080A128A1581
:100CD80098240A128A11710883120313C900700834
:100CE800C8004808B8004908B900BA01BB0138086B
:100CF800C407390803110318013E0319842EC507D8
:100D08003A0803110318013E03198B2EC6073B0846
:100D180003110318013E0319922EC7073208F00089
:100D280035080A128A1598240A128A117108831242
:100D38000313C9007008C8004808B8004908B9007A
:100D4800BA01BB013808C407390803110318013E6A
:100D58000319AF2EC5073A0803110318013E0319FA
:100D6800B62EC6073B0803110318013E0319BD2E12
:100D7800C7073208F00036080A128A1598240A12A2
:100D88008A11710883120313C9007008C800480843
:100D9800B8004908B900BA01BB0108300310B80D02
:100DA800B90DBA0DBB0DFF3E031DD22E3808C4077E
:100DB800390803110318013E0319E32EC5073A0841
:100DC80003110318013E0319EA2EC6073B08031155
:100DD8000318013E0319F12EC7073E08B8003F0863
:100DE800B9004008BA004108BB0018300310BB0C1A
:100DF800BA0CB90CB80CFF3E031DFA2E3808C4070C
:100E0800390803110318013E03190B2FC5073A08C7
:100E180003110318013E0319122FC6073B080311DB
:100E28000318013E0319192FC7070830B80003102B
:100E3800BE0DBF0DC00DC10DB80B1B2F43084207D7
:100E4800B800B901B90D3808823EC800390803183E
:100E5800013EFF3EC9004D2F0130B8000310C40DFC
:100E6800C50DC60DC70DB80B322FC11F3C2F3D2F26
:100E78003E2F44140130B8000310BE0DBF0DC00D45
:100E8800C10DB80B402FFF30C8070318C90AFF303F
:100E9800C907C61F502F512F302FC201C11F552F10
:100EA800562F722FFF303E05B800FF303F05B900BE
:100EB800FF304005BA007F304105BB003B083A04CB
:100EC800390438040319692F6A2F6D2F0130C200C5
:100ED800722F441C702F712F722F6A2F420803192A
:100EE800762F772FA82F0130C40700300318013060
:100EF800C507003003180130C60700300318013059
:100F0800C707471C882F892FA82F4408B800450811
:100F1800B9004608BA004708BB000130BC003B0DC9
:100F2800BB0CBA0CB90CB80CBC0B932F3B08C70010
:100F38003A08C6003908C5003808C4000130C80797
:100F48000318C90A0030C9074908803AFF008030F1
:100F58007F02031DB12FFF304802031CB42FB52FA9
:100F6800C02F7F3083120313C7008030C6000030C3
:100F7800C5000030C400F12F831203134908803ADA
:100F8800FF0080307F02031DCB2F01304802031879
:100F9800CE2FCF2FDB2F003083120313C700003072
:100FA800C6000030C5000030C400BD01F12F831217
:100FB80003134808C300FF30C405FF30C5057F3060
:100FC800C6050030C705431CEA2FEB2FEC2FC617C8
:100FD8004308B8000310380CC7003D08C704470889
:100FE800B3004608B2004508B1004408B000080044
:100FF80083010A128A15142FFF1B0A2883137F18EE
:1010080083170008840A0319FF0A080008308A00B9
:101018000408840A82070034553441345234543465
:101028002034543465347334743420345334743471
:101038006134723474340D340A3400340D340A3493
:10104800543465346D34703420343D3420340034E5
:10105800203443340D340A340D340A340034413416
:0C1068004434433420343D342034003440
:101828008030831603139F008130831203139F00B7
:101838000800F000831203130C1E232C242C1E2CEA
:10184800700899000800803083120313AB062F0834
:10185800F3002E08F2002D08F1002C08F0002B08E8
:10186800F7002A08F6002908F5002808F4000A12EB
:101878008A115E220A128A15730883120313AB00B9
:101888007208AA007108A9007008A8000800602C56
:101898007208FF00710884000A128A1500200A12D3
:1018A8008A150A128A151D240A128A150130F107B1
:1018B8000318F20A0030F207720883120313FF00BC
:1018C800710884000A128A1500200A128A15003A43
:1018D800031D6F2C702C4C2C0800F400C5308312AB
:1018E80003139F057408F20002300310F20DFF3E47
:1018F800031D792C0310720D9F040330F3009730F9
:10190800F200F20B852CF30B852C8A2C831203131F
:101918001F151F19902C912C8D2C1E08F100831671
:1019280003131E08F0000800F800F401F501700820
:10193800F200F3017208F6007308F700781CA52C72
:10194800A62CAC2C7608F4070318F50A7708F507D7
:1019580001300310F60DF70DFF3E031DAD2C0310EB
:10196800F80C7808031DB92CBA2CA22C7508F100C4
:101978007408F0000800700871040319C42CC52C01
:10198800F22C0130F400D12C01300310F00DF10DD0
:10199800FF3E031DC92C0130F407F11FD42CD52CB0
:1019A800C82C71087302031DDB2C70087202031C1B
:1019B800DE2CDF2CE52C7008F2027108031CF303FF
:1019C800F30201300310F10CF00CFF3E031DE62C6E
:1019D8000130F402031DF12CF22CD52C7308F10010
:1019E8007208F0000800F401F50170087104031989
:1019F800FE2CFF2C342D0130F6000B2D0130031086
:101A0800F00DF10DFF3E031D032D0130F607F11F08
:101A18000E2D0F2D022D01300310F40DF50DFF3E94
:101A2800031D102D71087302031D1C2D700872020E
:101A3800031C1F2D202D272D7008F2027108031C8E
:101A4800F303F302741401300310F10CF00CFF3EA1
:101A5800031D282D0130F602031D332D342D0F2DC3
:101A68007508F1007408F0000800031083120313CE
:101A78004C0D4D0DD3005308031D432D442D4D2D02
:101A88000030CD000030CC000030CB000030CA0060
:101A9800AE2D4A08CE004B08CF004C08D0004D08A8
:101AA800D1001F300310D10CD00CCF0CCE0CFF3E50
:101AB800031D562D4E08D200CC17FF30CA05FF3043
:101AC800CB05FF30CC050030CD059630D302D31FAF
:101AD8006E2D6F2D872D5308803A973E0318752D6C
:101AE800762D772D442D01300310CD0CCC0CCB0C6A
:101AF800CA0CFF3E031D782D0130D307031D852D29
:101B0800862D772D9E2D20305302031C8C2D8D2D74
:101B1800992D442D0130CE000310CA0DCB0DCC0DEC
:101B2800CD0DCE0B902D0130D3025308031D9D2DF2
:101B38009E2D8E2D52080319A22DA32DAE2DCA0954
:101B4800CB09CC09CD09CA0A0319CB0A0319CC0A57
:101B58000319CD0A080083120313E401E5015708AD
:101B6800CD005608CC005508CB005408CA000A120C
:101B78008A1539250A128A15831203134B08E300C4
:101B88004A08E2005708AF005608AE005508AD00F5
:101B98005408AC006208F0006308F100F201F30198
:101BA80000300A128A1560260A128A1573088312F1
:101BB8000313AB007208AA007108A9007008A800F6
:101BC8000A128A1527240A128A15831203132B086E
:101BD800B7002A08B6002908B5002808B400413023
:101BE800B3002030B2000030B1000030B0000A125B
:101BF8008A11BA240A128A15831203133308CD00F6
:101C08003208CC003108CB003008CA000A128A1505
:101C180039250A128A15831203134B08E1004A0872
:101C2800E0006308F8006208F7005A30F9000A1269
:101C38008A1113200A128A15332E64085A3E84002A
:101C48000008FF0064085807D900590884007F0875
:101C580080000130E4070318E50A0030E507831225
:101C6800031364085A3E840083130008031D3D2EA5
:101C78003E2E212E64085807D900590884002E30BA
:101C880080000130E4070318E50A0030E50764081E
:101C98005807D900590884006008303E8000013098
:101CA800E4070318E50A0030E50764085807D90077
:101CB8005908840080010800F80078080319652E87
:101CC800662E7A2EF31F692E6A2E7A2E7009FA0074
:101CD8007109FB007209FC007309FD00FA0A031977
:101CE800FB0A0319FC0A0319FD0A822E7308FD007A
:101CF8007208FC007108FB007008FA00730872048F
:101D080071047004031D892E8A2E932E0030F3006F
:101D18000030F2000030F1000030F000132F963050
:101D2800F900A12E0130F90701300310FD0CFC0C5D
:101D3800FB0CFA0CFF3E031D992EFE307D05031D9A
:101D4800A62EA72E962EC12E0130F9070130FA07CC
:101D5800003003180130FB07003003180130FC077E
:101D6800003003180130FD0701300310FD0CFC0C96
:101D7800FB0CFA0CFF3E031DB92EFF307D05031D39
:101D8800C62EC72EA82ED32E0130F9020130F4003A
:101D98000310FA0DFB0DFC0DFD0DF40BCC2EFC1BF6
:101DA800D62ED72EDD2E023079020318DC2EDD2E3A
:101DB800C82E7918E02EE12EE92EFF30FA05FF3003
:101DC800FB057F30FC05FF30FD050310F90C790891
:101DD800F400F501F601F70118300310F40DF50DC4
:101DE800F60DF70DFF3E031DF12E7408FA04750871
:101DF800FB047608FC047708FD0478080319052F0E
:101E0800062F0B2FF31F092F0A2F0B2FFD177D0805
:101E1800F3007C08F2007B08F1007A08F000080063
:101E28000A128A1104200A128A15823083120313B7
:101E3800E700DD30E600E60B1F2FE70B1F2F013010
:101E4800F1008030F2000A128A154B240A128A1512
:101E58000A128A1514240A128A15FF3083160313EE
:101E6800850000300A128A1571240A128A15710831
:101E780083160313B5007008B400413083120313AE
:101E8800CD002030CC000030CB000030CA004030FC
:101E9800B3009C30B2002830B100F630B000831691
:101EA80003133408F0003508F100F201F3010030A3
:101EB8000A128A1560260A128A15730883120313F8
:101EC800B7007208B6007108B5007008B4000A12AD
:101ED8008A11BA240A128A15831203133308D1000F
:101EE8003208D0003108CF003008CE000A128A111B
:101EF80094200A128A15831203134D0883160313BC
:101F0800B300831203134C0883160313B200831221
:101F180003134B0883160313B100831203134A08F3
:101F280083160313B0003508F8003408F700AA3008
:101F3800F9000A128A1113200A128A15831603134C
:101F4800330883120313D70083160313320883124E
:101F58000313D60083160313310883120313D50025
:101F680083160313300883120313D400A030D8005B
:101F78000A128A15AF250A128A152430F10080301A
:101F8800F2000A128A154B240A128A15AA30F100A7
:101F98000030F2000A128A154B240A128A151330EF
:101FA800F1008030F2000A128A154B240A128A15B1
:101FB800A030F1000030F2000A128A154B240A12F0
:101FC8008A151D30F1008030F2000A128A154B2460
:101FD8000A128A15063083120313E8001330E7004B
:101FE800AD30E600E60BF62FE70BF62FE80BF62FE1
:081FF800352F0A128A1100289E
:02400E00713F00
:00000001FF
